:020000041000EA
:1000000000B5324B212058609868022188439860DF
:10001000D860186158612E4B002199600221596106
:100020000121F02299502B49196001219960352056
:1000300000F044F80222904214D00621196600F024
:1000400034F8196E01211966002018661A6600F04E
:100050002CF8196E196E196E052000F02FF8012189
:100060000842F9D1002199601B49196000215960AB
:100070001A491B48016001219960EB211966A021F2
:10008000196600F012F800219960164914480160C1
:100090000121996001BC002800D000471248134993
:1000A000086003C880F30888084703B5996A0420EC
:1000B0000142FBD001200142F8D103BD02B5186610
:1000C0001866FFF7F2FF186E186E02BD00000240BE
:1000D000000000180000070000035F00212200005C
:1000E000F4000018222000A00001001008ED00E03C
:1000F00000000000000000000000000074B24E7A12
:1001000000200420F7010010CB010010CD010010E9
:10011000C9010010C9010010C9010010C901001077
:10012000C9010010C9010010C9010010CF01001061
:10013000C9010010C9010010D1010010D301001045
:10014000C1010010C1010010C1010010C101001067
:10015000C1010010C1010010C1010010C101001057
:10016000C1010010C1010010C1010010C101001047
:10017000C1010010C1010010C1010010C101001037
:10018000C1010010C1010010C1010010C101001027
:10019000C1010010C1010010C1010010C101001017
:1001A000C1010010C1010010C1010010C101001007
:1001B000C1010010C1010010C1010010C1010010F7
:1001C000EFF30580103800BE00BE00BE00BE00BECA
:1001D00000BE00BEF2EB8871702505109025051059
:1001E0003802001090A31AE71E481F49086006C88D
:1001F00081F3088810471D480068002801D019487D
:10020000F3E70DA40ECC002902D000F012F8F9E7B4
:100210001749184A002000E001C19142FCD116495B
:100220008847164988471649884700BEFDE701C937
:1002300001C29A42FBD3704790250510E0000020D0
:10024000C0170020703C05100000042000000420AE
:10025000703C051000100420001004200000000075
:10026000704700000000000008ED00E0000000D032
:10027000C0170020A0E30020194E00102103001039
:10028000114E0010F8B5C0460448054B10B5834226
:1002900003D0044B002B00D0984710BDC01700209E
:1002A000C01700200000000006480749091A8B10FB
:1002B000C90FC91810B5491003D0044B002B00D04A
:1002C000984710BDC0170020C01700200000000094
:1002D00010B5074C2378002B09D1FFF7D5FF054B4C
:1002E000002B02D0044800E000BF0123237010BDA2
:1002F000981A00200000000098840110054B10B5EA
:10030000002B03D00449054800E000BFFFF7CCFFF5
:1003100010BDC046000000009C1A00209884011007
:10032000F0B5DE4657464E464546E0B5E1B004F02E
:10033000A5FEFA200026C00002F03CF90F2000F0D4
:1003400007FC1A221B211C2000F0EEFCDC4DDD49CD
:10035000280007F055FC0321042001F08BF803214D
:10036000052001F087F800220121042001F09CF80B
:1003700000220121052001F097F8D34C40223C23B4
:10038000802126722000009500F060FE200000F021
:10039000FFFE00F083FA24AB5E849E84DE848246F6
:1003A0002E962F9602F0B0F90023C84A80185941C2
:1003B00080230A900B911B06994204D30122C44B5F
:1003C00052420A920B9302F09FF90023C14A80180F
:1003D000594180230C900D911B06994204D30122B0
:1003E000BB4B52420C920D9302F08EF90027BA4E8D
:1003F000802336184F411B069F4202D30126B44F7B
:10040000764202F081F90023B44A801859418023D2
:10041000089009911B06994204D30122AC4B524229
:10042000089209930023994601339846AC4BAD4D91
:100430001393AD4B1B93AD4B1C93AD4B2393AD4B23
:100440001D93AD4B1993AD4B0F93AD4B2093AD4B1B
:100450002193AD4B2293AD4B1F93AD4B2A93AD4BE4
:100460002993AD4B1E93AD4B2493AD4B1493AD4BE1
:100470002893AD4B2593AD4B2693AD4B2B93AD4BB2
:100480002793AD4B1693AD4B1293AD4B159330ABF9
:100490009B46AC4B1A93AC4B1093AC4B11936B6ACD
:1004A0009F4220D8A96AB14201D29F421BD0139B20
:1004B0002822002120000093012300F03FFF2000AC
:1004C00000F070FF00F04EFA8246002800D13FE1B4
:1004D0000023814AB6185F4180231B06BB4202D825
:1004E00001267B4F76420B9A6B6A9A422CD8A96AF6
:1004F0000A98814201D29A4226D00F9B28220C21D1
:1005000020000093012300F019FF200000F04AFFB3
:100510002FA92EA800F022FB53468146002B02D0C3
:10052000002800D077E10A980B990023674A8018C9
:10053000594180230A900B911B068B4204D801225B
:10054000634B52420A920B930D9A6B6A9A422FD8D0
:10055000A96A0C98814201D29A4229D0149B282280
:100560001E2120000093012300F0E8FE200000F08F
:1005700019FF24AA9446262363441A0022236344C5
:1005800018002DA900F00AFC002800D0F9E00C9812
:100590000D9900234F4A8018594180230C900D91EA
:1005A0001B068B4204D80122494B52420C920D93F8
:1005B000099A6B6A9A4200D971E7A96A0898814240
:1005C00002D29A4200D16AE7200000F0E1FD5246D3
:1005D000129B002A00D0169B0093002201230021C9
:1005E000200000F0ABFE4346002B56D01C23022215
:1005F00000936021200000F03DFE002398464B460A
:10060000002B56D02F9A2021009258462E9B159AE7
:1006100004F0A6FB24AA928C24AB5B8C20210092D0
:1006200038A8109A04F09CFB24AB2021DB8C119A93
:1006300040A804F095FB5B460A22002120000093AD
:10064000012300F07BFE38AB142200212000009330
:10065000012300F073FE40AB1E2200212000009316
:10066000012300F06BFE200000F09CFE0898099921
:1006700000231A4A801859418023089009911B06CB
:100680008B4200D90BE70122114B52420892099389
:100690006B6A9F4200D926E704E71B2302220093DE
:1006A0006021200000F01EFE012398464B46002BDF
:1006B000A8D15B461A9A03CA03C312781A70A9E735
:1006C00018120020801A0600B82F0020809698008B
:1006D000FFFFFF7F00093D00404B4C0040420F00F0
:1006E000C084011000400540C4840110F084011052
:1006F00098840110A0840110F484011018A2011044
:10070000048501100C860110148501101C85011050
:10071000AC8B0110BC850110A88401102C85011040
:1007200044850110488501108085011084850110E1
:100730008C85011090850110AC840110B4840110E7
:10074000A8850110B8850110C4850110D485011059
:100750001B9804F0E3FC1C9B062128222000009338
:10076000012300F0EBFD200000F01CFE00F0CAF8B1
:100770001D998246002800D02399199804F056FD4F
:10078000A6E624AB588C00F0A3FB24AB1790988C02
:1007900000F09EFB24AB1890D88C00F099FB5346D8
:1007A000002B00D1F3E624AB5B8C9A4602F0EEFE00
:1007B00006900791189802F0E9FE049005911798A9
:1007C00002F0E4FE0290039124ABDB8C80210193C4
:1007D00024AB9B8C289A009340A8534604F0C0FA9F
:1007E000259B2822242120000093012300F0A6FD50
:1007F000200000F0D7FDFA21269A49011F9840AB4E
:1008000000F0D6F81E998246002837D0279840AAD3
:1008100004F00CFDBBE62F9A40212E9B009240A8CD
:10082000209A04F09DFA219B282212212000009397
:10083000012300F083FD200000F0B4FDFA21229A8C
:1008400049011F9840AB00F0B3F81E99824600287A
:1008500004D0249840AA04F0E9FC64E62A9B1821FD
:10086000282220000093012300F068FD200000F002
:1008700099FD00F077F829998246EAE72B9B282119
:10088000282220000093012300F058FD200000F0F2
:1008900089FD00F067F829998246B7E710B512F094
:1008A00017F8002818D111F0A3FF0E4C0E482100B4
:1008B00004F0BCFC0D4920000D4B0E4A11F0A6FFC0
:1008C000011E04D10C4804F029FC012010BD0B4886
:1008D00004F0ACFC0020F9E7094804F01FFC0020FC
:1008E000F4E7C046FC85011010860110288601102F
:1008F0003075000004004000588601103486011055
:10090000DC85011010B5104C0021200015F08AFD87
:1009100003000120002B00DB10BD0C4804F0FEFB9F
:100920000B490C480C4B0D4A11F070FF011E06D10B
:100930000021200015F076FDC043C00FECE7084809
:1009400004F074FC0020E7E7C8250020C4840110EF
:1009500028860110FC8501101027000004004000CB
:100960006886011010B50021024815F05BFDC043F8
:10097000C00F10BDC8250020002070470300101EC6
:1009800003D001221A7000225A70704710B504007B
:10099000101E03D008F0B6FE002010BD0122227008
:1009A0005A425341080063700AF0A2FAF4E7C046C5
:1009B000F0B5DE4657464E464546E0B5584C8946AA
:1009C000A54407A983469246984611F0F1FC0028F9
:1009D00061D000200AF0C4F8041E00D191E0002389
:1009E00006AD29002B8009F06BFE20004D4909F06F
:1009F0006BFE20004C4909F075FE4A4607A920000D
:100A00004A4B92B209F0ACFA011E49D101F07CFECA
:100A100000294CD0FA220023920002F01DFA0600B1
:100A20002F78002F6BD1424B059315E0FA2200235B
:100A3000920002F011FA3F4B801B984218D811F037
:100A40003BFF0A2001F0B6FD002F54D1237D042B7B
:100A500033D02B78002B52D101F056FE0029E5D17E
:100A6000FA21890002F0BAF9324B801B9842E6D98C
:100A70002B78002B43D1304804F050FB200009F0C4
:100A80007FFF002089239B009D44F0BCBB46B246FB
:100A9000A946A046F0BD5946284804F0C7FBF0E738
:100AA000274804F0C3FB200009F06AFFE9E7FA21B8
:100AB000890002F093F90600B2E7404617F09CFB6C
:100AC000434603934B46802101935B46059A02906F
:100AD00000938900534608A804F042F9012382B22A
:100AE00008A920000CF082FA002817D120000DF090
:100AF0009BF8002809D12B780127002BACD068780F
:100B0000C0E7104804F00AFBBBE70F4B01001800D8
:100B100004F08CFB200009F033FFB2E70B4BF5E744
:100B2000DCFDFFFF8D090010790900107D09001020
:100B3000D086011087130000688701109486011089
:100B4000B8860110A886011050870110388701105F
:100B5000014B18607047C04664340020F0B5DE4693
:100B60004E4657464546E0B587B005220391834679
:100B7000002104A802F05EFD6A4B0127994618681F
:100B800000F02CFD4B463A001B68D0269A403606F2
:100B900072621420B26101F00DFD4B463A001B68F1
:100BA0001E209A400021726101F0F0FC4B461B6848
:100BB0009F40B76201F0A8FD04000D0008E001F0BD
:100BC000A3FD001BA941002900DD93E000D199E0BD
:100BD00073683B42F3D14B461F6801F095FD01233A
:100BE000D026BB4004000D001F00360608E001F0CF
:100BF0008BFD001BA941002900DD7BE000D185E0D1
:100C000073681F42F3D04B461F6801F07DFD01233E
:100C1000D026BB4004000D001F00360607E001F09F
:100C200073FD001BA941002964DC00D175E07368E5
:100C30001F42F4D10023D0279A46013398463F063D
:100C40004B461E6801F060FD4346B34004000D00B2
:100C50001E0006E001F058FD001BA941002949DCF7
:100C600046D07B681E42F5D001F04EFD4B46009009
:100C70001E68019101F048FD4346B34004000D0099
:100C80001E0006E001F040FD001BA941002931DCF7
:100C900040D07B681E42F5D101F036FD009C019DDD
:100CA0005346001BA941DA1004AB9B5C01245B0096
:100CB0002D2800DC0024234304A98B5401239C46E7
:100CC000E2445346282BBBD10B0009789A785B7815
:100CD00004A8C078CB18D3181B1804A80079DBB27D
:100CE000984207D1039B012019605B461A6002E01D
:100CF0006428B6D9002007B0F0BCBB46B246A9466E
:100D0000A046F0BDC82800D862E7F3E7C82800D89D
:100D100076E7EFE77828BCD9ECE7C82800D886E763
:100D2000E8E7C0466434002070B5194E194D1A4CDE
:100D30002A603160206006F07FFE24681F212000B9
:100D400000F098FB00222000002100F0ADFB200005
:100D5000002100F02FFC34681F21200000F08AFBE6
:100D600000222000002100F09FFB2000002100F065
:100D700021FC2C681F21200000F07CFB00222000B9
:100D8000002100F091FB0021200000F013FC70BD59
:100D9000683400206C340020603400204023F0B51B
:100DA00057464E464546DE469A460023E0B589B092
:100DB000029300930193404B80259B463F4B0426B2
:100DC00003933F4B3F4C0493E023DB0199463E4B9A
:100DD0003E4F98460590069107926D005B461B6852
:100DE00022681A3B1B0353404A46134042460520E3
:100DF0000021136001F0CAFB3E6023682B42FCD047
:100E0000019A636894461B041B0C9C44634601933F
:100E1000039B22681B6805201A3B1B0353404A466C
:100E2000134042460021136001F0B0FB3E6023688E
:100E30002B42FCD0009A636894461B041B0C9C4414
:100E400063460093049B22681B6805201A3B1B0322
:100E500053404A46134042460021136001F096FB7E
:100E60003E6023682B42FCD0029A636894461B04C0
:100E70001B0C9C446346C8200021029301F086FBB2
:100E800001235B429C46E2445346002BA6D101203D
:100E9000019B059A9B091380009B069A9B0913806E
:100EA000029B079A9B09138009B0F0BCBB46B2466F
:100EB000A946A046F0BDC04660340020683400203A
:100EC0006C34002000C0044000D0044000E0044026
:100ED00010B502F033FB034902F029FB024902F08E
:100EE00012FB10BD3333534000F07F45F0B545464B
:100EF00057464E46DE46E0B58FB018AD10CD94464D
:100F00002F780725267835406A1E9541A8466578D2
:100F1000F608B044002D00D191E04646002E00D1E5
:100F20008DE06246013A0C9201225918DE0091468A
:100F30000632A4460A964446002688469246190080
:100F40002B006246D57809947D1B5D4343465B1AAE
:100F50009B46AD1965435C4605350B9505944D469A
:100F600044460C9B6D1A5B180394002264468C4621
:100F7000390004950D960B9D1F006519AE5C079214
:100F8000089308250B0032006146A44605E0013DA8
:100F9000EDB252087F18002D37D04C461442F6D0DF
:100FA000049CE619059C0029F1D0E0468B469C463E
:100FB0000692037831000295A34217D942788A42FB
:100FC0000ED9CA085343C2684D46019252460A40A0
:100FD00095402A00019D1B19ED5C2A43019DEA54AE
:100FE000B94203D003780131A342E7D8039B01340F
:100FF000029D9C42DDD15946069A013DEDB2634601
:101000005208C4467F18002DC7D10A9D079AA846EA
:101010006446099D8C461900089B01324344954261
:10102000A9D10F006146A446039B0D9E98466346D6
:1010300001365B78F2B22C008844934281D80FB01D
:10104000F0BCBB46B246A946A046F0BDF0B5DE46B0
:10105000574645464E46E0B50F009A468BB0149B66
:101060000600C8B242499B46D3B2394098461B029B
:101070000B4351461500D208D2B2140423431B027D
:1010800009061B0A0B4333605B46504373603061B3
:10109000013002F0B5FAF060002867D0354B03ACA0
:1010A00003934346013B2371D32363718023DB0108
:1010B000E3808D232372337A0130F0606D00002BC2
:1010C00048D11423BD424BDB1221F12263722A4B1B
:1010D00025276381DA2323735A3BFF3BE38159338E
:1010E000FF332374254B61736382254B627408932D
:1010F00000232376234B6F449846234B02AD994639
:101100000CE0013003D14146204804F08FF801344F
:10111000A74217D073689B46F3789A46002322783B
:101120002B706A70514600932A000233584606F02D
:101130008FFD831CE5D141464846013404F076F822
:10114000A742E7D101200BB0F0BCBB46B246A9468E
:10115000A046F0BD1023BD4205DB12212222B5E7D7
:101160000221F122B2E702212222AFE73061EAE751
:10117000FF00FFFFAED580A8A1C8FFFFDB30000055
:10118000A4A6AF2078870110A887011088870110D6
:10119000030010B50021C0681A6902F04BFA10BDB7
:1011A000F8B557464E464546DE460C00E0B506000B
:1011B00017001D0099423CDC56D00A9B981A02F099
:1011C000BDF98046281B02F0B9F9011C404602F027
:1011D0009AF98246380002F0B1F96B1C9846072351
:1011E000814600279B463578A54218D9380002F081
:1011F000A5F9514602F09BF9494602F081F902F047
:10120000BFF9737898420AD2C3085D435B46184021
:1012100001238340F2682D19515D0B43535501346E
:1012200001374445DFD1F0BCBB46B246A946A046D3
:10123000F8BD0A9A072301279C463378AB42F2D9BE
:10124000717891420BD9D1084B4361463C00114063
:101250008C402100F0685B19C45C2143C1540A9B97
:1012600001329342E9DADEE70A9B9A42E2DD1A0094
:10127000E0E7C046F0B5DE4657464E4645460C0010
:101280009446E0B5002B27D0099A002A24D098462E
:1012900063469146013B9944072301269B468844B7
:1012A00003786246A34214D9417891420BD9D10800
:1012B0004B435946370011408F403900C5681B1910
:1012C000EF5C3943E954914503D003780132A342DE
:1012D000EAD80134A045E3D1F0BCBB46B246A946EA
:1012E000A046F0BDF0B5C64600B5CF1882B03B00B1
:1012F0000092140006000D00FFF752FF089B290022
:101300009846A04443464246300000933B00FFF716
:1013100047FF434622002900300000932B00FFF7CF
:101320003FFF43462200009339003B003000FFF7A7
:1013300037FF02B080BCB846F0BDC046F0B54E469F
:1013400045465746DE46E0B583B00C9D81462C7875
:10135000924698460E00002C16D05F00104B474472
:101360009B467F002300203B01355E2B13D85B4654
:10137000310001940093524643464846FFF7B6FDBC
:101380002C78BE19002CEDD103B0F0BCBB46B246A0
:10139000A946A046F0BD2C78BE19002CE2D1F3E797
:1013A00018A50110F0B5CE464746212380B5027836
:1013B00087B004AC2380531EA3702223E370002364
:1013C000237183780600013B6371402A03D12023F7
:1013D00063703F33A3701627224B6F449846224B0D
:1013E00003AD994608E0013003D141461F4803F0A0
:1013F0001DFF0134A74213D0002322782B706A709E
:10140000F17870682A000093023306F021FC831CF7
:10141000E9D141464846013403F008FFA742EBD129
:1014200040220024F368013B1A703369F268F178B6
:1014300070680133013A009406F00AFC831C0BD05B
:10144000013004D007B0C0BCB946B046F0BD084971
:10145000064803F0EBFEF5E70549034803F0E6FE16
:10146000F0E7C04678870110A8870110888701102F
:10147000B8870110094A83009A1810B514684022F1
:10148000544080322240064CC000A44663441A6097
:10149000044B9C466044416010BDC04604C00140FE
:1014A00004D0014000400140074B8000C3181B6876
:1014B000C90092000A435A400C231340034A944641
:1014C000604403607047C04604C0014004D001403E
:1014D0008000002905D0064B9C460223604403602F
:1014E0007047044B9C46022360440360F8E7C04603
:1014F00004E0014004F00140D0231B061B6830B516
:101500000500584243412F205B4283430E48EC08BC
:101510008446072028408000814020000B4D3C304D
:1015200063448000A40041511B19002A05D0802289
:10153000920194466344196030BDC02292019446E2
:1015400063441960F8E7C046304101400040014063
:10155000D023F0B5C6461B0698461B680C4F9B006F
:101560001600FA5804000D0000B5104209D12900F8
:1015700014430D203200FC5000F0B0F980BCB84696
:10158000F0BD01F0D3FA43461B689B00FA58EEE722
:1015900008E2002010B504000D2000F099FAD023D5
:1015A0001B061B6802499B005A58A2435A5010BDA3
:1015B00008E200208000002905D0064B9C4640230D
:1015C000604403607047044B9C46402360440360C2
:1015D000F8E7C04604E0014004F001400123D022B6
:1015E0008340120693629361094A83009A18116836
:1015F0004022514080320A400649C0008C46634474
:101600001A60054B9C460523604443607047C04602
:1016100004C0014004D00140004001408023DB05AC
:101620001868000F7047C0460FB400B5084883B073
:1016300003F074FD049B002B07D005A9180001914D
:1016400003F0B2FB034803F069FD012003F0C4FB83
:10165000C8870110E4A30110EFF3108072B6034AAB
:101660001368002BFCD0BFF35F8F70472C0100D0B4
:10167000BFF35F8F0022024B1A6080F3108870471F
:101680002C0100D070B5EFF3108C72B60D4D2B68A5
:10169000002BFCD0BFF35F8F0724CB08C618C05CBB
:1016A00001230C40A3401C000440034207D118430F
:1016B0003070BFF35F8F2C608CF3108870BD10000A
:1016C000FFF7B2FF2C0100D0F8B54746CE4688465A
:1016D00080B5EFF3108C72B6214D2C68002CFCD035
:1016E000BFF35F8F9A422CD8D4080727055D0619EF
:1016F00001241740BC402C421FD0072101278946F6
:1017000009E0D408055D06194C4639001440A14093
:101710000C00294211D001329342F2D20120404202
:10172000BFF35F8F00220E4B1A608CF310880028E5
:101730000FDBC0BCB946B046F8BD2543100035707C
:10174000EEE7BFF35F8F00232B608CF3108801203E
:1017500040424346002BECD00898FFF765FFC04697
:101760002C0100D030B5EFF3108C72B60A4C236810
:10177000002BFCD0BFF35F8F072301220B409A4060
:10178000CD08435D93434355BFF35F8F0023236030
:101790008CF3108830BDC0462C0100D0044A10786C
:1017A000431CDBB2172B00D9102313707047C046BF
:1017B0005811002010B5064B064C82B00100009372
:1017C00018221F232000FFF77FFF02B010BDC04684
:1017D000D8870110842500200021044B044ABFF360
:1017E0005F8F02C39342FAD17047C046000100D018
:1017F000800100D0054B064A1360064A136053600F
:101800009360D360136153619361704780808080DF
:1018100000E400E004E400E01F2318401E3B834086
:10182000002905D0C021044A490053501360704775
:10183000802201498B50FAE700E100E0012282405A
:10184000034B1B6813405A1E9341D8B27047C046E1
:1018500000E100E001238340014A13607047C04665
:1018600000E200E0064B10309B688000C358054A38
:1018700000209B1A2F229A424041C0B27047C046B6
:1018800000ED00E05C11002070B50D00EFF3108654
:1018900072B60F4A1368002BFCD0BFF35F8F0D4B5D
:1018A00010309B6884001B590B4A934203D09D4221
:1018B00001D001F03BF9074B9B681D51BFF35F8FCF
:1018C000BFF35F8F0022024B1A6086F3108870BD51
:1018D000240100D000ED00E0C1010010F0B5574632
:1018E0004E46DE464546E0B585B00600009117003D
:1018F000EFF3108B72B66A4A1368002BFCD0BFF36B
:101900005F8F0025674B5D579A46002D00DAA9E0EE
:101910006B00654C01935B199B009846A146C1443E
:101920004B4652469B7910361370604BB6009B684D
:1019300099590B1B2F2B33D95D4B994200D0ACE04A
:10194000019B42469C465B4B6544AD0063535A4B3A
:101950000232A218043B9B1A1B05584A5B0D6519FD
:1019600013436B80564B0121AB80FF23AB71009B6F
:10197000EF71AB604B460B4319004C4B9B68995180
:10198000BFF35F8FBFF35F8F0022454B1A608BF36D
:10199000108805B0F0BCBB46B246A946A046F0BDD3
:1019A00001200A008243D3798C46BB4231D8454698
:1019B000130044491B1B5B415943090D3D4B6353C5
:1019C0003D4B02356519043B5B1B1B053B4D5B0D15
:1019D0002B43AA464D466B800425AC465546E04451
:1019E000131F44441B1B1B055B0D1D434B46997184
:1019F00000999D8099604946DF71334B0143136024
:101A0000BBE75800C01880002018C179B9422FD90F
:101A100002000623D356002BF3DA02932B4B6146C8
:101A20000393131D9A4604235B429C46E1445046AF
:101A30004B461B1A1B055B0D9C46204B9571984627
:101A40006346404603439380019B5A199200039BCF
:101A5000A418A380029B1C4AA371009B2260E7711B
:101A6000A3608AE701F062F8002553465D574FE70F
:101A7000908802934005131D9A46031561469C46C3
:101A80004046D444634604302018181AE023000569
:101A9000400D1B0218430390C5E701F047F84FE7DC
:101AA000240100D094E300205C11002000ED00E050
:101AB000C101001000A1FFFF8C11002000E0FFFF1A
:101AC00001BDFFFFAAAA00000148804701BD000038
:101AD000F0B5DE4657464E464546E0B50C0083B0AD
:101AE000EFF3108872B6634A1368002BFCD0BFF383
:101AF0005F8F614B61499A68030010339F00D5598D
:101B000000938D4243D0A54254D05D4EAA1B2F2A8C
:101B10003DD85C4B9C461B689A4601231A009946A7
:101B20008240534613401F2201934B46024093408C
:101B30009A468022634650469850BFF35F8FEFF37A
:101B400005839B46002B37D0009B5B4501D000F0FE
:101B5000EDFF2A004B469A439068844208D177E013
:101B60004B005B189B00F3189868844236D01A002B
:101B7000062151560029F3DA844255D0019B002BEF
:101B800027D0C02251463F4B5200995019603A4B22
:101B90009B68DD51BFF35F8FBFF35F8F0022354B32
:101BA0001A6088F3108803B0F0BCBB46B246A94661
:101BB000A046F0BD0D00EAE72A004B469A43906824
:101BC0008442D5D106201056130000280ADA0D00F1
:101BD00032E0802351462B4AD150D8E706201856D0
:101BE000002822DB42001118890074188946A16878
:101BF0009960E179D971062161569971002925DB37
:101C0000A488F11A640524154C440919E024090537
:101C1000490D24022143998013181B4A9B00117817
:101C2000F31899711070A9E713005946002914D1CF
:101C3000FF3191711549918013490A789A71144ABC
:101C40009B1B5B415A43120D0A7097E71149E2E76B
:101C50000620105613000028C4DA0F4A0F49D21A82
:101C6000083A5002400D014399800D4952080A4339
:101C7000DA8083E7240100D000ED00E0C10100100C
:101C80005C11002000E100E094E3002001BDFFFFB3
:101C9000AAAA000001BD00009611002000F0FFFF7D
:101CA00000F8FFFF10B58308040003202040FF2444
:101CB000054AC0009446844081409B0063441A68F2
:101CC000A2430A431A6010BD00E400E070B501248D
:101CD0000443EFF30581EFF3108C72B6214A1368C9
:101CE000002BFCD0BFF35F8F1F4B05001F4AED1A7E
:101CF0006D416A43120D1E4D8900AE6852B276588E
:101D0000A6421CD00621595691421CD01221595688
:101D1000914222D01E215956914220D02A21595653
:101D20000324914210D0134B19781A708171BFF3BC
:101D30005F8F00220B4B1A608CF3108870BDAB686C
:101D40000D4C5C50EFE700246100091989005B1815
:101D5000FF21997109499980E5E70124F4E70224FC
:101D6000F2E7C046240100D05C110020AAAA0000BE
:101D700000ED00E094E30020C101001001BDFFFF71
:101D80001F2110B5091A0248FFF7ECFC10BDC04630
:101D90009FE3002010B5084B084C82B0010000936F
:101DA000002205232000FFF78FFC002801DB1F2302
:101DB000181A02B010BDC046F48701109FE300203E
:101DC00070B504000E001500FFF7E8FC01002000CC
:101DD00000F006F8A680E580BFF35F8F70BDC046B7
:101DE000024B9C466144890001607047400000340A
:101DF00070B5114C114DAC420FD2FF262368002B59
:101E00000CD0FFF7CBFC01002000FFF7E9FFA68014
:101E1000BFF35F8F0834AC42F0D370BDFFF7BEFC58
:101E200001002000FFF7DCFF2671BFF35F8F08344D
:101E3000AC42E3D3F1E7C046B8170020C01700203A
:101E400010B50400FFF7AAFC01002000FFF7C8FF4F
:101E5000FF232371BFF35F8F10BDC04610B5040090
:101E6000FFF79CFC01002000FFF7BAFFFF23A380CF
:101E7000BFF35F8F10BDC04610B504000120FFF70F
:101E800099FC034BC3189B002360BFF35F8F10BD09
:101E900040000034034B9C46614489000160BFF35D
:101EA0005F8F7047400000340A4B1968EFF31080D1
:101EB00072B60A68002AFCD0BFF35F8F1B68BFF3BD
:101EC0005F8F00221A6080F3108840BF002000213D
:101ED0007047C0462CE30020F0B5DE4657464E461C
:101EE0004546E0B583B0EFF3058203231340B54ABE
:101EF000990052580091904601229A409346B24B65
:101F00001A60B24B01935B46B148436343460822D3
:101F10009B5E9946002B3ADA43469B881BB2002B06
:101F200000DB9DE043469B79002B00D0E1E0434677
:101F300008241C5F002C20DB43465A6963001B19F0
:101F4000DB00D3189D68DC686B1C00D103E1A0485E
:101F5000009984466144826A0B69AE1A9B1A9E42BC
:101F600013D35A46036A1A420FD0994800F0C4FBB3
:101F70008C4202DCC7D18542C5D940BF03B0F0BC5A
:101F8000BB46B246A946A046F0BD0D61EDE742460C
:101F900052695B0092464B44DB009A4453469E686C
:101FA000DF6800F0A9FB8F42B6DC00D1F8E0002F1B
:101FB00000DAD9E05246534654691B69019A9342AC
:101FC00000D1CCE0414652460820085E5288000409
:101FD00021001043984704000D0023002B4300D13B
:101FE000C2E0002D00DBDFE030003900001BA9411A
:101FF00053469860D96000229A5E002A00DA8BE787
:1020000043465D6953009C18E4002C19A768E468F6
:102010008C4200DD80E702D1874200D97CE746464A
:10202000328108360DE08C4200D1C6E01E0000234C
:10203000F25E002A0ADB53009C18E4002C19A76802
:10204000E4689B18DB00EB188C42ECDD53461A80E9
:102050004B46338043469B881BB2002B00DA61E776
:1020600043461A69EFF3108172B61368002BFCD057
:10207000BFF35F8F43469E88012342465B429380B5
:1020800036B21369BFF35F8F00221A6081F31088A4
:10209000002E00DA46E743465D69083342469C4617
:1020A0007700BF19FF00EF19BB6860469846082308
:1020B000D15E9246FC68002907DA0EE0A24246D0C3
:1020C00018000023C15E002906DB4B005B18DB0013
:1020D000EB18DA68A242F1DD524606800023FE5E6C
:1020E0003980002EDCDA904643469B79002B00D1E4
:1020F0001DE7002342469371434646460821595E38
:1021000008364B1C00D138E747468946556902E03E
:1021100006004B1C18D04B005B18DB00E8180A00C7
:102120008C46E95E43881BB2002BF1DA01235B4247
:10213000DC178360C4604A4503D031803B8903804B
:102140003A81E1464B1CE6D1B8464C46F2E69A6825
:102150004245B5D9C0E7631C00D0F8E605E720008A
:1021600023699847002825D1534642461B8813818E
:102170001269EFF3108372B611680029FCD0BFF327
:102180005F8F4246514652880A80424649465180F6
:102190001269BFF35F8F0021116083F31088BBE6E3
:1021A000864200D803E7B7E6094800F0A5FA00190F
:1021B00069411DE7656824680FE7874200D835E765
:1021C00044E7C0463CD200203C700540D91E0010B8
:1021D0000040054070B52E4C2569002D04D00A2121
:1021E0002C48FFF7FDFD70BD2B4E0321300000F0A1
:1021F00079FAE660FFF7D2FA284B03229C46D023F7
:1022000022701B061B6801216370254B6044A3608C
:102210000F23800020610220638063694942A1800E
:1022200019800231198647311D83585218315A528C
:1022300075325C3999521832013199521832013194
:102240009952183201319952083518329D52023193
:10225000183299521832013199521832013199527B
:102260001832013199521832013199521832013124
:1022700099520C4B0C49DC6001303562FFF704FBCE
:1022800001210320FFF7C8FA084B1D60A7E7C046ED
:10229000A41100202CE30020004005404000003441
:1022A000FFFF10003CD20020D91E0010386005400E
:1022B00000487047A4110020F8B51F0008AB1B7838
:1022C00004001600002B08D100F01EFA32003B007B
:1022D000121A8B41002B00DA53E02269EFF31080D1
:1022E00072B61368002BFCD0BFF35F8F0223E15E50
:1022F00063694A005218D2009B18002937DB1A88FC
:1023000062802269BFF35F8F0025156080F310881B
:10231000069A9E60DF601A61079A5A615A880132F4
:102320005204520C101C002A1FD082B2588008049C
:1023300010432669EFF3108772B63268002AFCD08A
:10234000BFF35F8FA2881A80A1802369BFF35F8FDC
:1023500000221A6087F310880B4923788C460132DB
:102360009A40E36863441A60F8BD0120DDE7236901
:10237000BFF35F8F00221A6080F310880120404273
:10238000F2E70020F0E7C0463C20000070B50100F5
:102390000469EFF3108C72B620680028FCD0BFF3FC
:1023A0005F8F02200D5E4C6968004019C000241840
:1023B000002D37DB208848800869BFF35F8F002637
:1023C00006608CF31088E360638804980133206111
:1023D0005B0405985B0CA26060611A1C002B1FD087
:1023E00093B22804628018430A69EFF3108C72B626
:1023F0001368002BFCD0BFF35F8F8B8823808D8008
:102400000B69BFF35F8F00221A608CF310880B7882
:1024100001329A40CB6808498C4663441A6070BD0B
:102420000122DDE70B69BFF35F8F00221A608CF396
:10243000108801204042F2E73C20000010B543899B
:102440000A1493421ADD53009B184269DB00D3182B
:102450000469EFF3108C72B62268002AFCD0BFF337
:102460005F8F5A88090494B2090C8A4208D0036924
:10247000BFF35F8F00221A608CF31088002010BD1C
:102480008022120214435C80012302698371BFF32E
:102490005F8F002111608CF31088044902788C460C
:1024A0009340C268012062441360E8E73C200000CA
:1024B00040787047F0B504000D0006267642F71705
:1024C000C64636196F4100B582B08F4214D811D07C
:1024D00000F01AF932003B00121A8B41002B17DC76
:1024E000002B47D02000290000F018F902B080BC72
:1024F000B846F0BD8642EBD90022002316001F002B
:1025000000F002F932003B00121A8B41002BE7DD8C
:1025100000F0FAF832003B00121A8B41002B0ADB64
:1025200000230193154B3200009315483B00FFF741
:102530002DFF0028D6DB00239C46B046114A124EE0
:10254000736A9F4204D8B16A8845CBD99F42C9D1EA
:102550001168EFF3108072B60B68002BFCD0BFF34C
:102560005F8F1368BFF35F8F6146196080F3108837
:1025700020BFE5E7002AB5D0CAE7C046A91E001073
:10258000A41100202CE300200040054070B5040099
:102590000D0000F0B9F88023001969411B0699422B
:1025A00002D3012002494042FFF784FF70BDC046BC
:1025B000FFFFFF7F70B5060000F0A6F8FA220400C6
:1025C0000D00002330000021920000F079FF8023ED
:1025D000001969411B06994202D301200249404279
:1025E000FFF768FF70BDC046FFFFFF7FF0B5D6461E
:1025F0004F464646C0B504000D0082B0EFF3058794
:102600008946002F0ED0344900204B6AAB4203D3D9
:102610008A6A0130A24226D302B0E0BCBA46B14673
:10262000A846F0BD2D4B9846DB689A464346504677
:102630001E7800F061F80B00514602000436B60027
:10264000715820008E1A2900801A99418F4211DC9E
:102650000ED020BF204A0020536A4B45DCD3926A3B
:102660000130A242D8D25B1B5A1E9341D8B2D3E7A5
:102670008642EED900F048F822002B00121A8B4156
:10268000002B1ADB00230193154B220000934046D8
:102690002B00FFF77BFE011E0FDD0F4B5A6A4A45E8
:1026A00017D39B6AA34212D34046FFF7C7FE0A4ADC
:1026B0000020536A4B45AFD3D1E7074A0020536A45
:1026C0004B45A9D3926A0120A242A5D2CBE74A4545
:1026D000EAD120BFE8E7C04600400540A411002031
:1026E000A91E001010B5024A0248FEF7CBFF10BD2C
:1026F00010880110882500200300416A0A00986AAA
:10270000596A8A42FAD17047034B596A0A00986A9B
:10271000596A9142FAD1704700400540064A536A0F
:102720009942FCD807D1044B02E05A6A914202D187
:102730009A6A8242F9D3704700400540F8B5DE46F8
:102740004E4657464546E0B58B4605000A991800A7
:10275000160000F043FB0A9B6C001F02324B641909
:102760009C46A4006444636881469F4200D9676028
:102770002B1FDBB29846012B30D9C02380229B014E
:10278000E31812011A60294BAD0059599A460029E5
:102790001BD17301E026226853401E40802342462D
:1027A0005B01E3181E60012A30D9802380229B013F
:1027B000E31812011A6053464A4667605A51F0BC4A
:1027C000BB46B246A946A046F8BD586900F006FBD4
:1027D000013043001B18033BFDD2DAE75B46012BB7
:1027E000CBD1C02303229B01E3181A60023AA368ED
:1027F0001A42FCD07301E0262268AD0053401E400F
:1028000080230A4A5B019246E3181E605A462168FB
:10281000514003220A401A6001225B469A40A36895
:102820001A42FCD0C1E7C04600800040902500203D
:10283000F0B546464F46D646C0B51F00344B44005F
:102840009C462418A4006444636888461600FF2B45
:1028500002D880235B006360031FDBB29A46012B22
:1028600030D9C02380229B01E31812011A60294B42
:1028700085005959994600291BD17301E026226829
:1028800053401E40802352465B01E3181E60012A1C
:1028900030D9802380229B01E31812011A60802323
:1028A0005B0063604B465F51E0BCBA46B146A84648
:1028B000F0BD586900F092FA013043001B18033B49
:1028C000FDD2DAE74346012BCBD1C02303229B0183
:1028D000E3181A60023AA3681A42FCD07301E0269A
:1028E0002268850053401E4080230A4A5B019146BE
:1028F000E3181E6042462168514003220A401A60D4
:10290000012342469340A2681342FCD0C1E7C0466F
:102910000080004090250020014B8000C058704787
:1029200090250020F8B5040021481E0017000D0076
:1029300000F054FA0100380000F050FA069B36040B
:102940001B031E432368002B20DB1A4B1A49E31894
:102950005A1E93418022920194465B421B0B174AF8
:102960001B0363441360164A13601F000A689743F1
:10297000FBD1144B2560E2182123A060136023686B
:10298000002BFCDA0823E6601360F8BD3F232268C1
:102990001340AB42D9D1A3681B051B0D8342D4D190
:1029A000EE22E368D2021340B342CED1EDE7C04637
:1029B000001BB7000040FDBF08C0004000E0004021
:1029C00000F000400430000010B580241C4BE405EA
:1029D0001C6000281AD001231A4C18431A4BDC61E2
:1029E0001A4C44401C62596298628021144BC905FC
:1029F0001960174817490860E021C9041960002AC6
:102A000007D18022144B12061A6010BD0E4BD861FC
:102A1000EBE753019B1A9B009A18802312015B0479
:102A20009A4209D213000D490B60074B5A6080226D
:102A3000094BD2051A60E8E7094B1A00F3E7C046D4
:102A400000B00540D3C007B0008005402D3FF84FCF
:102A5000FCFF01000820014000A00540A438002030
:102A6000FFFFFF008023024A9B000B43D3627047A5
:102A700000800540142310B50100188804331B881A
:102A8000984710BD162310B50100188802331B8823
:102A9000984710BDF8B54746CE4680B50F1E19D0F1
:102AA00014239946043304000025012698464B461A
:102AB0001888434621681B88984701C4431E9841E3
:102AC000013540420640AF42F1D13000C0BCB946AA
:102AD000B046F8BD0126F8E7142370B50400188845
:102AE00004331B880D000549984703000020002C83
:102AF00001DB0130A04029009847C0465542000044
:102B0000AA23064A1B0113608D235B00D36004498E
:102B1000044B19605368002BFCDA704700400240F8
:102B200000B0FA00006002407047C04610B501488E
:102B3000FEF77AFD3488011070B5074D074EB54297
:102B400009D20024013E761BB60808CD9847230021
:102B50000134B342F9D170BD508401108C8401104E
:102B6000054B064A06491A60064A074B1A601000D0
:102B70000B689843FBD1704700E00040BFCDFBFEDF
:102B800008C00040FE7F3C0000F00040044BDB6CBE
:102B9000002B03D18022034BD2021A607047C0463B
:102BA000000011504C201150044A054B1A60054A90
:102BB0001368DB018033FBD17047C046FFFFFF0184
:102BC00000F0004008C000404022034B9A675A675B
:102BD0001A67DA667047C04600F0014010B5FEF78C
:102BE000FBFD10BDF8B52749274C284D641AA610E7
:102BF0003200302E00D930222800920000F020FD53
:102C0000BC2C3BD830202F232C196407204A801B72
:102C1000E40F9B1B052B16D93700002C02D0B30004
:102C2000771CEA50001B33199B004108EB18C900C0
:102C3000C9181A605A6008339942FAD10123034235
:102C40001CD09843C619B300EA50731C2F2E15D020
:102C50009B00EA50B31C2E2E10D09B00EA50F31CB0
:102C60002D2E0BD09B00EA50331D2C2E06D09B003E
:102C7000EA50731D2B2E01D09B00EA50054B9D603E
:102C8000F8BDC04600010010C00100100000002087
:102C9000C101001000ED00E0002310B5294C82B006
:102CA000A367FFF72DFF0122274B1A60636C012BEE
:102CB000FCD10322254B1A60224A936B012BFCD1D5
:102CC000013300930121224A22480433FFF72AFEF0
:102CD000052301210093204A2048FFF723FE00220C
:102CE000022104201E4BFFF7A3FD00220121052035
:102CF0001C4BFFF79DFD0022002107201A4BFFF718
:102D000097FD002200210820174BFFF791FD80233B
:102D1000DB000093002200210920134BFFF70EFD7A
:102D20000022104B00210620FFF782FD0420FFF750
:102D3000F3FD0E4900F052F801000020FFF792FE6B
:102D400002B010BD008000403CB0004030B00040F8
:102D5000002F685900800240008C864700C0024066
:102D6000001BB70040597307006CDC0240420F00A3
:102D700001480421014B1847C0110020952A00107A
:102D8000014B9B6818470000C0110020124A936F46
:102D90009B0815D29066D166002905D0FFE7FFE7B2
:102DA000FFE7516F106F704704B580210906C21705
:102DB0005140002800D0C84315F0FAFA002104BDA4
:102DC000F0B5146E556E576F166FFFF7E3FF14667C
:102DD000556657671667F0BD000000D0114A936F23
:102DE0009B0813D210665166002905D0FFE7FFE764
:102DF000FFE7516F106F704704B5002801D0002025
:102E0000C04315F0D5FA002104BDC046F0B5146EDC
:102E1000556E576F166FFFF7E5FF146655665767D7
:102E20001667F0BD000000D094464A4A926F92089F
:102E3000624601D228E0C046F0B5464E346E756E4B
:102E4000776F366F00F020F89446424A1466556654
:102E5000576716676246F0BD94463E4A926F9208E5
:102E6000624601D254E0C046F0B53A4E346E756EFB
:102E7000776F366F00F04CF89446364A1466556604
:102E8000576716676246F0BD002B24DB11D000297E
:102E90003EDA00B5C943404200D1013100F038F8B4
:102EA000C943404200D10131DB43524200D10133DA
:102EB00000BD002AEBD1002801D1002905D0002057
:102EC000C90FC90701D1C043410800B515F058FA30
:102ED0000022002300BD00B500290ADBDB4352427B
:102EE00000D1013300F014F8C943404200D1013150
:102EF00000BDC943404200D10131DB43524200D101
:102F0000013300F005F8DB43524200D1013300BD2C
:102F1000002923D1002B18D1002A0CD0BC460D4F1C
:102F200038667A6600210023FFE7FFE7FFE77A6F44
:102F3000386F67467047002801D00748010000B588
:102F400015F01EFA0022002300BD02000B00002035
:102F500000217047000000D0FFFFFFFF002B00D0D2
:102F6000BFE0130C28D1002AE7D080B4114F396696
:102F70007A66FFE7FFE730B4040C7B6F396F1B0400
:102F800023433B667A66FFE7FFE7FFE7C04684B26C
:102F90007B6F3D6F1B0423433B667A66FFE7FFE7C9
:102FA000C04600232C042D0C7A6F386F001969413C
:102FB000B0BC7047000000D0F0B594460025140E58
:102FC00001D112020835140F01D112010435940FFA
:102FD00001D192000235D40F01D152000135D40B3A
:102FE0000134254F7C66254C3C660E0C93B2FFE7FE
:102FF000FFE7FFE73C6F6643360C7703BE4673433B
:10300000DF0B5B04C01AB941130C7343DB18C91AF8
:10301000CE086643360CB64493B273431F0F1B01B0
:10302000C01AB941130C73431F0B1B05C01AB941D9
:10303000860D8F023E436643360C092D24DB520A6F
:103040007243801A7703460A6643360C16235B1BCD
:10305000DE40DF40BF1964466643821B704604357C
:1030600006330100D940A840C01900D30131A24263
:1030700006D20023F0BD0000000000D0FFFFFFFFDC
:10308000121B0130F3D3F1E709277F1BFE40644692
:10309000A2B27243801A00D20139220C7243130C7F
:1030A0001204821A99410B0070460435133701004F
:1030B000F940A840801900D30131002B02D1A2426F
:1030C0000AD2F0BD013000D30131121BFAD2013B0C
:1030D000F8D1A24200D2F0BD013000D30131121B61
:1030E000F7E7F0B51C0C00D080E00CB400251C0AFA
:1030F00004D11B02160E3343120208351C0B04D1F7
:103100001B01160F3343120104359C0B04D19B00A5
:10311000960F334392000235DC0B02D192185B41CB
:1031200001351C00971864410134464F7C66464CBB
:103130003C660E0CFFE7FFE7FFE7C0463C6F6643C7
:10314000360C7703BE4697B27743C01B00D20139D5
:10315000C01B00D201399FB27743C91BC91B170C92
:1031600077437E04FF0B801BB941CE086643360CC3
:103170000C2D33DBB644120B1F053A431B0B97B2E1
:103180007743C01B00D201399FB27743C91B170C8C
:1031900077433E043F0C801BB941860D8F023E43AE
:1031A000664329277F1BFE400C3D7746AF40BF1981
:1031B00030BCA2B2ABB272437343801A9941220C65
:1031C0007243130C1204801A994102000B0001375C
:1031D000001BA941F9D2781E0021F0BD0C277F1BEE
:1031E000FE4077467F0BAF40FF19E0E700245D1CEF
:1031F00007D0144F7D663966FFE7FFE7FFE7FFE77B
:103200003C6F95B29EB265436643401BB141150CBD
:103210001E0C6543664336042F0C3E432D04401BB1
:10322000B141994204D202000B0020000021F0BD00
:1032300001D19042F7D3801A994101349942F2D3D7
:10324000F6E70000000000D0FFFFFFFF48404140CC
:10325000484018B4134B5B68019308BD18B4114B78
:103260001B68019308BD94460F4A926F920805D2DD
:10327000624618B40B4BDB68019308BD0A4AF0B5EF
:10328000146E556E576F166F6246FFF7F2FF064ACF
:103290001466556657671667F0BD18B4014B9B68F6
:1032A000019308BD98190020000000D0FFB55040E0
:1032B0004240504059404B40594000E0FFB5154F47
:1032C0004C00640D03D0BC4204D10C0314D8002080
:1032D000090D09055C00640D03D0BC4204D11C0338
:1032E0000AD800221B0D1B0501264B4009D44B4078
:1032F00003D58B4200D18242FFBD9942FCD190425E
:10330000FFBD0B43DB1803431343F5D0C9434918F2
:10331000FFBD0000FF07000000B5FFF7CFFF8041B1
:1033200000BDC04600B5FFF7C1FF01D9002000BDB8
:10333000012000BD00B5FFF7B9FF804100BD0120AD
:1033400040054A00121804D85A00121801D800206B
:1033500070470120704700000021002805D1704708
:10336000C1174840401AFAD0C90713B5064B1B686D
:1033700098470CBC441CA2401005120B0349091BC2
:1033800009051943114310BD28E200201F04000065
:1033900010B54C00620D8023D218DB00D21A5B05F9
:1033A0007E2A10DD9E3A13DACC1709034908194327
:1033B0005242D140640001341532202A05DAD0404F
:1033C0000843604310BD002010BD0846604310BD97
:1033D000C80FC018013810BD18B4024B5B6A0193C6
:1033E00008BD00009819002010B50148FEF71CF92F
:1033F00040880110132370B51D78012D19D014DDFC
:103400001D48FFF73FFB06001C48FFF73BFB1C4C29
:1034100080223100200000F013F9022D06D0194857
:10342000FFF728FB184B186070BD154C174BA364B1
:10343000F5E7174B124C23606360A360E3602361E0
:103440006361A361E36123626362A362E362236356
:103450006363A363E36323646364A364E364236536
:103460006365A365E36523666366A366E366236716
:103470006367A367E367D9E753440000534600003E
:10348000981900204C33000028E2002095340010E9
:10349000E933001007B5604601880A0A0230DF2AC6
:1034A000FAD1C9B2820804D30288408800041043CC
:1034B00000E00068014A5050039007BD98190020B1
:1034C00051434343C9188C46110C83B24B4310B48B
:1034D000040C614392B280B2504362431C041B0C43
:1034E000001910BC59411304120CC0185141614419
:1034F000704700004840414048400E4B5B68184709
:103500000C4B1B6818470C4A936F9B0802D2094B5F
:10351000DB681847F0B5146E556E576F166FFFF7DE
:10352000F6FF054A1466556657671667F0BD014BEE
:103530009B6818472CE20020000000D0C10FC9078B
:1035400000D54042002817D0F44603B40B4B1B684B
:10355000984706BC81409E384042803107D20B0616
:1035600007D04900490AC0051043084360470130AD
:10357000F8E7490A8902F5E77047000028E20020D1
:10358000014B5B6A184700002CE20020014BDB6F07
:10359000184700002CE2002010B50148FEF744F85F
:1035A000A4870110132310B510481C78FFF76AFA9E
:1035B0000100012C0AD003DD80220D4800F040F804
:1035C0000C48FFF757FA0C4B186010BD084C5422FA
:1035D000200000F035F82200084980322368002BD3
:1035E00000D1216004349442F8D1E9E75346000049
:1035F0002CE200204C33000028E200209935001016
:1036000010B5040014F0CAFD002804D0034B0419BF
:103610009C4200D810BD0248FEF706F800000420C6
:103620005888011001480421014B1847D01100208F
:10363000952A0010014B1B6818470000D01100208C
:10364000014B5B6818470000D01100209A4200D25D
:10365000885470477047C046F8B55746DE464E4618
:103660004546E0B599460A9B07009A460D9B884659
:1036700093460B9C9B073BD10C9B9C423DD21E1B4F
:103680000B9415000C005E442A004B4601352100C6
:103690002020B847B542F7D1A0460B9C002C20D083
:1036A000454636195346321B013C185D29004B46EE
:1036B000B847002CF6D12B00350098460D9B9B0790
:1036C0000FD55B46EC1A0C9BA3420AD94646984696
:1036D0002A004B46310020200134B84701354445CB
:1036E000F6D32800F0BCBB46B246A946A046F8BDBA
:1036F00016001500002CD3D1E0E71600002CCFD126
:103700001500EEE7F0B54F464646D646C0B584B044
:1037100098460EAB1B7894469946129B0D9C109FC1
:10372000119E9A0725D4002E65D1BC4221D20122D8
:103730001A409246202C00D1E9E00C9A551E302206
:1037400002E0202C00D17BE001342A55A742F8D8B2
:103750005246002A0DD0B4420BD20C9A551E30228C
:10376000202C02D171E0202C2DD001342A55B442F6
:10377000F9D1DA063CD55A052ED4002C28D10F9A5F
:10378000102A00D1B6E0022A00D1BCE030220C9C05
:10379000227001244A46002A65D15A0700D499E0D4
:1037A0002B220C9D2A55013403930C9B62460093F7
:1037B000029643460194FFF74FFF04B0E0BCBA46BF
:1037C000B146A846F0BD2024DA06EDD55A0503D44B
:1037D000A74266D0B44264D00F9A102A71D0022A50
:1037E00057D0202CE0D02200013430250C9FBD544E
:1037F000202CD9D0CEE7012215001D40AA461A423E
:1038000036D04A46002A4AD10C321A4247D1BC422D
:10381000A1D2202C91D1202E17D82024DA06C3D58E
:103820005A051BD4202F01D0202ED5D11F220F9D49
:10383000102D6FD0022DD8D162250C9FBD54D0E73A
:103840005246002A79D0202EBDD92024DA06ABD5E5
:103850005A0503D4202FE9D0202EE7D00F9A102A42
:10386000A2D12024A0E72D220C9D2A5501349BE7EC
:10387000BC4200D37DE7202C00D05EE7DA06F0D50D
:103880005A05EED4202F62D0202EEAD134001F2218
:10389000CDE7202C00D187E722000134CCE7013EA0
:1038A000B5E7621E012CC2D10F9A102A00D06AE738
:1038B0009A063BD558220C9C2270283A627002244A
:1038C00068E79A060ED4202CCBD078220C9D2A557E
:1038D000013486E71A0700D466E720220C9D2A559A
:1038E000013461E7202CBCD058250C9A12191570B0
:1038F000013476E79A0608D558220C9C22703022B3
:103900006270022446E76032F7E77822F5E7002A82
:1039100083D1B3E7A21E013C9D0603D478250C9FFA
:10392000BD5460E758250C9FBD545CE778220C9C81
:103930002270483A627002242CE7DA0600D433E79A
:103940005A058BD4202F00D044E71F226FE73C009C
:103950001F226CE710B5002800D110BD01F092FBCA
:10396000FBE7C0460B0010B5002802D049681B6871
:10397000984710BDF0B557464E464546DE46E0B581
:1039800099B08246894690460893229A239B10005C
:103990001900FFF7D4FC002800D0CDE0229823992D
:1039A0000122D94B5242FFF7C5FC002800D0C3E0EA
:1039B000229823990122D54B5242FFF7ADFC0028F3
:1039C00000D0B9E02298239900220023FFF7A4FC3D
:1039D000002800D0F1E1229E239F8023269ADB005D
:1039E0001A400D92269A1A4201D10623249380236D
:1039F000269A1B011A403B0093460996334300D098
:103A0000B3E0002A00D0C2E1002300240A930B9403
:103A1000002304250993259B0024AB4200D95C1B9D
:103A20000223269A1A400C92269A134203D06B4224
:103A30006B415B421C40099B002B07D00A9A0B9BF1
:103A400030003900FFF70FFC06000F002298239981
:103A500000220023FFF760FC002803D08021090624
:103A60007B181F00269AAA4B009601971340089EC8
:103A70000493249B039402934246330049465046E4
:103A800000F0AAF90400002D67D02020269A4946AC
:103A9000024013005A4253415B42621C18400A9292
:103AA000330022004530D047099A6F1ED317D4182F
:103AB0005C40D30F9B46002501E0202D13D008AABF
:103AC00094461F23200063440A2101355E19FFF745
:103AD00085F93031317020000A21FFF77FF9260087
:103AE0000400092EE9D805230693002304930A3322
:103AF00003935B46089E029310AB0A9A00934946D3
:103B00003300504605970195FFF7FCFD0C9A040021
:103B1000002A22D04246851A259AAA421DD9B046CB
:103B20005746160022004346494620200135B84733
:103B30000134AE42F6D810E0269B42460493259B02
:103B400049460393249B50460293229B239C009357
:103B50000194089B00F040F90400200019B0F0BC6B
:103B6000BB46B246A946A046F0BD6A4B78009C46CB
:103B7000400D6044FFF7F4FB674A684BFFF78DFB8D
:103B8000674A684BFFF76AFB674A3B031B0B1A4304
:103B900004000D0009981100644B0022FFF759FB47
:103BA000634A644BFFF779FB02000B0020002900F9
:103BB000FFF754FBFFF7ECFB0990FFF7D1FB5E4AE0
:103BC0005E4B04000D00FFF768FB00225C4BFFF723
:103BD00045FBFFF7DDFB5B4A5B4B29000C902000A7
:103BE000FFF75BFB04000C980D00FFF7B9FB574A89
:103BF000574BFFF752FB02000B0020002900FFF794
:103C000028FB04000D0002000B000A940B95FFF73F
:103C100044FB04000D000A980B9902000B00FFF70B
:103C20001DFB00220E900F914A4B20002900FFF748
:103C30001AFB0022484BFFF711FB02000B0020008B
:103C40002900FFF710FB0022444BFFF707FB02009F
:103C50000B0020002900FFF706FB0A9A0B9B0D00C2
:103C600080210400C9050020FFF7F3FA02000B00D1
:103C700020002900FFF7F2FA02000B000E980F99BE
:103C8000FFF7F1FA0022284BFFF7E8FA344B0C9CBF
:103C90009C46644423050022FFF7FFFA04000D0050
:103CA00002000B00300039000A940B95FFF734FB3B
:103CB00000285DD123002A00C625099963318D4271
:103CC000AD4159466D420435002900D1A3E61343A6
:103CD00063D030003900234A234BFFF723FB002831
:103CE00007D0002230003900204BFFF715FB0028D9
:103CF00053D1249B002B00D18DE60D9B5A1E93417E
:103D0000249AD31A249386E6FFFFEF7FFFFFEFFF8D
:103D1000FFF7FFFF01FCFFFFFB799F501344D33FE8
:103D2000B3C8608B288AC63F0000F03F0000F83F10
:103D300061436F63A787D23F71A379094F930A400C
:103D40000000E03F1655B5BBB16B0240EF39FAFEFB
:103D5000422EE63F00002C400000244000001840A6
:103D6000FF0300002D431CEBE2361A3F80842E41F6
:103D7000099B0022013B09932000164B2900FFF705
:103D800072FA0A00010003000A910B9294E70023E3
:103D900000240A930B9400230993249A099B9A42C6
:103DA00014DDD31A013B24938023269ADB001A43A7
:103DB00000230025269209932DE6802212069446C0
:103DC000229B1E00239B63441F0006E600232493CE
:103DD000EAE7C04600002440F0B54546DE464E46C0
:103DE0005746E0B595B08B46904699461E9A1F9B64
:103DF0000A9019001000209DFFF7A1FA002800D0BA
:103E0000B0E11E981F990122C74B5242FFF784FA76
:103E1000002800D037E11E981F990122C34B52425F
:103E2000FFF788FA002800D0A7E01E981F9900220B
:103E3000BF4BFFF77FFA002800D088E01E981F993B
:103E40000022BC4BFFF768FA002800D07FE01E98E4
:103E50001F9900220023FFF75FFA002800D0FAE044
:103E600000230B938023229C229ADB001C401A42E1
:103E700000D102E1092D00D87CE106A98C462C0076
:103E8000172200233021093C62440133D154EF1A38
:103E9000202B00D132E1A342F7D10022A44B06929D
:103EA00007931E981F99FFF773FA0500FFF758FA5A
:103EB00002000B001E981F99FFF7CBF9069A079B8B
:103EC000FFF7EBF908900991FFF786FA0600FFF774
:103ED00043FA02000B0008980999FFF7BAF900228B
:103EE000954B08900991FFF725FA002800D1D2E000
:103EF00001363000FFF730FA069A079BFFF712FAF7
:103F0000002801D000260135AA46002F00D098E0F5
:103F10002800FFF725FA02000B001E981F99FFF7F3
:103F200098F9854B002206000F00FFF7F5F90CAB5E
:103F30009A46002845D10022300039007E4BFFF719
:103F4000F9F900283DD1EB073BD5013539E0229B3B
:103F500042460493219B594603930A981E9B1F9C3B
:103F60000295009301944B46FFF704FD15B0F0BC99
:103F7000BB46B246A946A046F0BD229B5B0767D46C
:103F800003226E4B22990192039121990291009391
:103F900042464B4659460A98FFF75EFBE6E706AAFB
:103FA00094461723280063440A2101341E19FEF7A2
:103FB000EDFE3031280031700A21FEF7E7FE051EC4
:103FC00076D0202CEBD10323229A1340012B1DD154
:103FD000219B002B1AD00B9B002B00D0BBE0229A18
:103FE0000C33134200D0B6E0219BA34200D887E0F7
:103FF00006AB9C4617223023624404E02199013429
:1040000013558C4259D0202CF8D12024229B0194A6
:104010000393219B02935346B9E706AA94461723BC
:104020000A216344300001341D19FEF7D7FE3031F8
:10403000297030000A21013FFEF7D0FE092E46D933
:104040000600202CE9D155460CAB20249A46B8E74F
:1040500004223B4B96E71E9A1F9B00200021FFF78E
:10406000F8F801230B938023229C229ADB001E90F8
:104070001F911C401A4200D0FCE60022314B06275B
:10408000069207930DE7229B0393219B029304233F
:1040900001932D4B7BE7002208980999264BFFF7E7
:1040A0003BF9002800D02FE7002E4FD101362BE737
:1040B0000323229A1340012B66D0202CA6D00B9B01
:1040C000002B1FD02D235246135501349EE7554631
:1040D000202CB9D030233A19002F08D0172006A978
:1040E000013409180B55202CAED09442F6D10CABFC
:1040F0009A462E2352461355013462E72024CCE61B
:10410000202C83D0229B5B0708D4229B1B0700D462
:104110007CE7202352461355013477E72B23524680
:104120001355013472E7C046FFFFEFFFFFFFEF7F3B
:1041300065CDCD4165CDCDC10000E03FB088011017
:10414000A888011080842E41B8880110F30700D49C
:10415000DAE60136D8E6219B013B2193A34200D940
:1041600046E7AAE7229B0393219B02930323019333
:10417000074B0CE7074BEA009B185C681B682F0095
:104180000693079400248CE6219B002B95D022E710
:10419000B4880110F0A80110F0B55746DE464E462F
:1041A0004546E0B5A5B01F002E9B91460D93CA4A27
:1041B000CA4B82468B461A60002900D129E20023AF
:1041C00038789846002800D12BE2C54B44460C9322
:1041D000C44B55464E460E930AE0631C9846220097
:1041E00033005946A84744463878002800D187E074
:1041F00001372528F1D108239A46043B9946023B12
:104200009846013B00229C460B943878791C0300A9
:10421000203BDBB2102B03D80C9C9B00E3589F463D
:104220000300303B0B9C0B92092B3AD90023984694
:104230002A2800D1DDE000239A462E284BD0030027
:10424000683BDBB2122B1ED80E9A9B00D3589F46B8
:1042500063460F001A43D8E743460F001A43D4E7DA
:104260004B460F001A43D0E710230F001A43CCE748
:1042700053460F001A43C8E780235B000B9A7878F7
:104280001A430B9201310F0067284FD82428A4D974
:104290000300253BDBB2422B9FD893499B00CB58B0
:1042A0009F46002398460B9B47469C4600E0013101
:1042B000BB00DB195B001F180878303F0300303B60
:1042C000092BF4D963460B930023B8469A460F0096
:1042D00001312E28B3D180200B9AC00002430B92EB
:1042E00030225242944678780B0084446246092A70
:1042F00000D8AAE12A2800D1B9E10F0001319EE7D8
:10430000A046AA46B146C84503D301235B424B44AD
:1043100098464B46424659460020D047200025B0DB
:10432000F0BCBB46B246A946A046F0BD01006939C3
:10433000C9B20F2900D950E701238B409C466B4B33
:10434000994663464A4613400F9362464B461A42CB
:1043500000D068E10A2956D0072900D03DE70D9B1F
:1043600002CB9846002900D092E10B9B10211A0045
:104370008A43100011310843814680201A00C00092
:104380000240110003421CD114AB9C461F220F2394
:1043900062440D959C4615000F9B0B9402E0202B68
:1043A0000CD0110064460C4020003730092C00D896
:1043B00007380133E8540A090F29F0D80B9C0D9DEA
:1043C0000F934B46082206935346059208320392F8
:1043D000002204930F9B029201931CAB22000093D6
:1043E000594633002800FFF78DF9434604000D932A
:1043F000FAE60D9B04CB9046002A79DB78780D9382
:104400000F00013117E70D9B02CB14930B789C46EC
:1044100018005346002B00D134E1002815D0534634
:10442000013B013399460D940B9C89444A460B008D
:10443000A14601E0934203D05C780133002CF9D10E
:104440004A465B1A0D9C0B920F938023DB00994622
:104450000B9A13400D934B461A4204D00F9B5345C1
:1044600001D953460F93022399460B9A13400B939D
:104470004B46134200D1F5E16346002B00D1D6E153
:104480000D9B002B00D182E10B1BD14631009A46D7
:104490003B00A1442E005F464D4622009B468946C4
:1044A00009E04B463900541CB0475346185D0028BC
:1044B00000D192E122009542F3D14B465A46A946DB
:1044C000BB46350017001E004C460B9B002B00D04E
:1044D000ADE1149B0D9387E6994100109C380020B4
:1044E00054A7011098A70110E4A701104190000003
:1044F0000B9A283802430B924246524278789046F3
:104500000F000D93013196E678786C2800D15DE1BB
:1045100080230B9A5B001A430B920131B3E6802390
:104520009B00ABE67878682800D148E180230B9A9D
:1045300001311A430B92A6E6672800D1B2E0472862
:1045400000D11AE1452800D11CE10B9A0721049201
:1045500042460D9B0392073352468B431900029249
:104560000CC92800009201930D9122003300594696
:10457000FFF700FA040037E6462800D18DE00B9AD9
:104580000721049242460D9B0392073352468B4308
:10459000190002920CC92800009201930D9122008B
:1045A00033005946FFF718FC04001DE6631C9846CB
:1045B0002200330059462520A847444614E60D9BA7
:1045C00004330F93631C99460B9B9A0700D40AE1AE
:1045D0000D9B2200187859463300A84743464444AF
:1045E000012B00D86FE1B0462E0025004C46B9469D
:1045F0005F4622004346013439002020B047AC42D8
:10460000F7D12C00BB4635004F4646460F9B0D9315
:10461000EAE5D64B38789A4600239846002800D021
:10462000D3E500246FE66F2842D000D8FDE11023C7
:10463000782800D19BE00B9A9A430B920A239C4660
:10464000002314930A330F9338E057460B9AB900AE
:10465000C919490001330F181878303F010030396B
:104660000929F4D9BA460B921F00591CE7E50D9BA6
:10467000B87804CB0237D143C9170A4092460D934C
:10468000791CDCE5002800D1DFE602235B42C8E6A6
:1046900021200B9A0243914676E620230B9A1A4377
:1046A0000B926CE780230B9A1B011A430B924CE789
:1046B00008239C460023149308330F930B98802300
:1046C0000200DB001A4011000200184200D080E016
:1046D0000C239A431000802302009B001A400B9287
:1046E000184200D0F1E0802302005B001A4091469E
:1046F0000D9A04321492184200D0C3E2430600D54A
:10470000D7E0030600D421E30D9B1B880993002BFF
:1047100000D02DE110339843002900D128E1002377
:10472000994643460593534604930F9B0690039383
:10473000002302934B4601931CAB22000093594681
:1047400033002800FEF7DEFF0400C2E6582809D037
:10475000622800D0E3E202239C4600231493023334
:104760000F93ABE720230B9A1A430B92103B9C4606
:104770000023149310330F93A0E780230B9A1B019F
:104780001A430B9220230B9A1A430B92DDE60B1B64
:104790009A460F9B99463B0037005E469B46220097
:1047A0003B003100A84753460134185D0028F6D17C
:1047B0004B460F935B46B3463E001F0085E6C02381
:1047C0000B9AB8781A430B92F91C5CE5C0239B0046
:1047D000F6E70D239A4310007DE75B463500BB46A4
:1047E0004E461F0071E64346012B66D9631E4344C3
:1047F00032002E001D003B00A2465F4691469B46BC
:1048000022004B46013439002020B047AC42F7D19A
:104810005B463500BB464E46A14654461F000D9BE5
:104820004A461878594633004444A847EEE60F9BA1
:10483000A146984500D84CE64444E41AB0462E0000
:1048400025004C46B9465F462200434601343900F4
:104850002020B047AC42F7D12C00BB4635004F4674
:10486000464636E60F98804500D873E24346E21884
:10487000131A32002E001D003B0091465F469B46F6
:104880000F9122004B46013439002020B047AC4242
:10489000F7D15B46BB461F0043460F9901330F9388
:1048A0000B7835009C464E466046002800D0E7E570
:1048B0000FE60D9B1B78099329E70D9B22001878C2
:1048C00059463300A8474C46A0E60D9AFA3BFF3BF9
:1048D00007329A430133994691444B460D9313682E
:1048E000526815921A4306D1103290430022099261
:1048F000002900D083E06122810600D54122D2B296
:104900000A9214AA91460A9A00210A3A0B92424648
:104910001792524618925A46B24609911E001F310C
:10492000149B4944BB4616941A9500246746984642
:104930008946159D19901B920AE03032D2B24B463F
:1049400001341A55A8454CD0202C4CD006000D003F
:104950003A00002330002900FEF77EFAD2B2092A7D
:10496000EBD90B9B9C466244D2B2E8E75536001067
:104970006123820600D54123DBB20A3B0B934346F9
:1049800014A91F228C46159353466244B2460D94D7
:1049900017974C468046A9461700099D0F9E16930F
:1049A00008E03033DBB201343B55B5420ED3202C46
:1049B0000CD0050031002800FEF710FACBB209290F
:1049C000EFD90B9A94466344DBB2ECE7159B404663
:1049D0009846169B4D465646A1469A460D9C179FF3
:1049E0009FE6B742B0D9179B56469846189B5F463C
:1049F0009A461B9B09949B46169C19981A9D434600
:104A00000593534604930F9B069003930023029350
:104A1000099B01931CAB22000093594633002800E8
:104A2000FEF770FE0400FFF7DFFB10230B9A9A439A
:104A30000F92692800D091E10B9980230A00DB00D6
:104A40001A4010000A00194203D0112118008A43AD
:104A50000F920F9A802311009B0019408C461A4236
:104A60005BD1802311005B00194089460D99043108
:104A70000B911A4200D0B2E013005B0600D4EDE0C7
:104A80000D9B1B781A00D90F0D91002B00D1A3E0CC
:104A9000100014AA944642461F23159252466344BE
:104AA000A846BA464D461494B14604001F0016921B
:104AB00001E0202D0FD020000A21FEF78FF90135EB
:104AC0007E193031317020000A21FEF787F9260067
:104AD0000400092EEDD8159B4E46A946454698463A
:104AE000169B57469A46149C0F9B06934346059384
:104AF000534604930A2303930D9B02934B46019361
:104B00001CAB22000093594633002800FEF7FAFD43
:104B10000B9B04000D93FFF767FB07220D9B0733E8
:104B20009343013294469C4462460D920CCBD90FBC
:104B30000B911100194300D19BE0D91713911291E9
:104B40005140109113995940119110981199129A4E
:104B5000139B801A99411090119114AA94464246D1
:104B60000023159252469946169232001F33634431
:104B7000A8464E46BA4614941F00109C119D9146BB
:104B800001E0202E10D0200029000A220023FEF789
:104B900063F9013630322B00BA550D0022000400B3
:104BA000002BEED1092AECD8159B1094119545469F
:104BB00098464B46169AB14657461E009246149C9C
:104BC0000F9B069343460593534604930A2303938E
:104BD0000B9B02934B461CE7002885D159E70D9BA0
:104BE0001B68DA0F1100002B00D1A6E0DA17981825
:104BF000504014AA91461F2342464B44A8460D94A8
:104C0000169704006546B1461F001491159201E005
:104C1000202D0FD020000A21FEF7E0F801357E1983
:104C20003031317020000A21FEF7D8F82600040048
:104C3000092EEDD8159BAC4645469846149B4E462A
:104C400019000D9C169F0F9B0291069343460593F6
:104C5000534604930A230393634650E713001B064D
:104C60006ED50D9B00229B5ED9175A184A4092B20E
:104C700009E7002399460028A2D1002200231092C0
:104C800011936AE70D9B1B689946002B03D11033E3
:104C90009843002938D16123820600D54123DBB235
:104CA0000A3B0D9343461693534614A91F228C4684
:104CB00017932B0062444D46B246159418978046D0
:104CC000170099460B9C0F9E08E03033DBB201348D
:104CD0003B55B5420ED3202C0CD0050031002800E6
:104CE000FEF77CF8CBB20929EFD90D9A94466344BC
:104CF000DBB2ECE7169B40469846179B56464D465E
:104D00009A460B94189F159C43460593534604936B
:104D10000F9B06900393002302930B9B0BE50B99CB
:104D200080230A00DB001A4010000A00194200D05C
:104D30008BE610239A430F928BE6002883D158E725
:104D40000D9B1B68D9175A184A409CE60D9B1B689F
:104D50000993DCE4030001330F93A5E50B926DE4A6
:104D60000CB430B585B008AC08CC064D0A000094F0
:104D7000010028000394FFF70FFA05B030BC08BC0F
:104D800002B018474D36001000B585B003910121DF
:104D900002900093034813004A4202A9FFF7FCF96E
:104DA00005B000BD6539001010B5094A030014684C
:104DB00084B0002C08D0012200910648524203A979
:104DC000A047012004B010BD00F0A8F90020F9E7C9
:104DD0009C3800205539001000BEFDE7094A030049
:104DE0001068002805D00849C3188B4207D8136003
:104DF000704706480449C31810608B42F7D9012058
:104E00004042F5E77034002000000420A0E30020B9
:104E100010B5FFF7E1FFC04670B5FDF78DFE074DF9
:104E2000074EB54209D20024013E761BB60808CDD4
:104E3000984723000134B342F9D170BD8C8401102E
:104E400098840110030010B5080011001B689847F2
:104E500010BDC046F0B5C64600B5437D07000D0045
:104E60001600002B38D0002A2EDD00216A1E904645
:104E70006A5C037D4C1C00200A2A0CD0A64216D086
:104E800043461B5D21000D3B5A4253416A5CDBB235
:104E90004C1C0A2AF2D1002BF0D1884217DB0221E8
:104EA00010483B689847A64207D02000E8E78642B2
:104EB00003DD311A3B6828189847AD19013D2B785E
:104EC0000D3B5A4253413B7580BCB846F0BD091AB0
:104ED0003B6828189847E2E70368110028009847C4
:104EE000F2E7C04640A90110F0B5C6460B680600BF
:104EF0000C0000B5802B06D05A1C2260E4182671E5
:104F000080BCB846F0BD0F4B1D68002D16D00B1DA0
:104F100098460D4F02E02D69002D0FD02B68002B15
:104F2000F9D03B68002B01D0AB42F4D128004146B8
:104F30002268FFF78FFF2D69002DEFD1012200239A
:104F4000DBE7C046543400205C340020F0B5DE4678
:104F500057464E464546E0B585B017001C00060092
:104F60000D00FDF7D1FB0023314A12184B4180217F
:104F700009068B4202D301222E4B52422E490800D1
:104F80008A4613F03DFA01906B1C03D1300013F0F8
:104F900033F90500002C26D0284B9846284B1C6876
:104FA000002C15D0002F21D1264F02E02469002CBF
:104FB0000ED02368002BF9D03B68002B01D09C4217
:104FC000F4D120002A003100C0472469002CF0D120
:104FD000019B002B28D1280005B0F0BCBB46B2468F
:104FE000A946A046F0BD184B9846D7E7154B994601
:104FF00002ABDF1D0A239B4602E02469002CE7D0A8
:105000002368002BF9D04B461B68002B01D0A3422C
:10501000F3D12A0031002000C0475B46012239004D
:1050200020003B70C047E8E7504613F0A1F9D2E7F3
:1050300040420F00FFFFFF7FB8170020554E0010C1
:10504000543400205C340020454E00100A4A136896
:10505000002B05D10CE01A001B691032002B07D081
:105060009842F8D1002902D10369136001617047A9
:105070000029FCD01060FAE75434002010B500F08D
:1050800003FB10BDF0B5CE46474680B583B06B46F6
:105090000600DD1D2870FDF737FB00231A4A1218A1
:1050A0004B41802109068B4202D30122174B524209
:1050B00017490800884613F0A3F9164B81461C686F
:1050C000002C14D0144F02E02469002C0FD0236868
:1050D000002BF9D03B68002B01D09C42F4D120007A
:1050E00001222900FFF7B6FE2469002CEFD14B46C0
:1050F000002B05D1300003B0C0BCB946B046F0BDAE
:10510000404613F035F9F5E740420F00FFFFFF7FFF
:10511000B8170020543400205C34002070B504001F
:1051200013F06AF801230100050001222000FFF7B7
:105130000DFF084B1C68002C06D06368002B05D0BF
:1051400098472469002CF8D1280070BD2469002CF0
:10515000F3D1F9E754340020F0B5CE46474680B588
:10516000A3B004000D00FDF7CFFA0023294A12185E
:105170004B41802109068B4202D30122264B524229
:10518000264F380013F03CF900230600019322005B
:105190002B00234801A9FFF7F7FD019B8046002B58
:1051A00014D1204B1C68002C06D06368002B0BD058
:1051B00098472469002CF8D1002E25D1404623B011
:1051C000C0BCB946B046F0BD2469ECE7154B1D687C
:1051D0009946002D1CD0144C02E02D69002D0FD0F3
:1051E0002B68002BF9D02368002B01D0AB42F4D1FF
:1051F0002800019A02A9FFF72DFE2D69002DEFD19D
:105200004B4601951C68CEE7380013F0B1F8D5E79E
:105210000195D1E740420F00FFFFFF7FB817002044
:10522000E94E0010543400205C3400200FB400B567
:1052300083B004A901C90191FFF78EFF03B008BC38
:1052400004B018477047C0460022014B1A707047DF
:1052500095E300204B790020FF2B0BD18B79002B9D
:1052600008D1CB79012B05D1082A03D9024B8A78C2
:1052700009301A707047C04695E30020012070473E
:1052800010B5012901D0012010BD134953791079BF
:1052900009781B02034300209942F5D15378012B72
:1052A00008D0022BF0D1002064220021FDF78CFBF6
:1052B0000120E9E7D37891781B021943DB0507D574
:1052C0004A0A100001231A407E331940FDF704FCFE
:1052D00001204A0A4042F5E795E300200048704764
:1052E0000CAA011070B5050014000120012909D194
:1052F00053780020012B05D1637912791B021343E7
:10530000072B00D070BD21002800024A9F3301F016
:1053100067FAF7E764A9011001230370004870479A
:1053200044A901104B780A781B0213438A7810B500
:1053300012041A43CB781B0613439622D2009342E1
:1053400000D010BD0022012011004042FDF7C4FB37
:10535000024B1860024B19607047C0467C25002044
:105360008025002010B5024B1878FCF773FA10BDA9
:1053700096E30020154B70B51A68002A22D0EFF38F
:10538000108172B610680028FCD0BFF35F8F002038
:105390000F4A596010701B68BFF35F8F186081F36C
:1053A0001088002400250B4E3078FCF747FA0028BF
:1053B00004D1002400252900200070BD3078FCF7BE
:1053C00049FAF8E7FA240025A400ECE734D20020DB
:1053D00098E3002096E3002070B5040000200E0042
:1053E00001F01EFB002836D0002001F02FFB002822
:1053F00031D0FDF789F90023184A12184B4180215A
:1054000009068B4216D2164D280012F0F9FF00282B
:1054100021D0002001F004FB00280FD10120002141
:10542000404200F011FD03246442280012F0A0FF66
:10543000200070BD01220B4B5242E4E7002001F036
:1054400005FB0028EAD021003200002001F008FB13
:10545000041EEAD1E7E703246442E9E740420F0073
:1054600030E30020FFFFFF7F10B5FDF74DF900236B
:105470000E4A12184B41802109068B4202D30122A9
:105480000B4B52420B4C200012F0BAFF00280CD0FC
:1054900001200021404200F0D7FC002001F02AFB4F
:1054A0000028F5D1200012F063FF10BD40420F002C
:1054B000FFFFFF7F30E30020F8B5DE46574680B59A
:1054C00005000C00FDF720F90023374A12184B4164
:1054D000802109068B4202D30122344B52423449C7
:1054E00008008A4612F08CFF002803D1C0BCBB46DE
:1054F000B246F8BD002001F093FA00284AD00026F9
:10550000002C43DD2B4B9B4614E0A919002001F031
:105510002BFB070001200021404200F095FC0020F9
:1055200001F0E8FAFDF7F0F8224BF619186059601F
:10553000B4422BDD002001F037FBA71B0200B8426C
:1055400000DD3A00002AE0D101200021404200F0B5
:105550007BFC002001F0CEFA002001F061FA002867
:1055600014D0002001F020FB0028E1D1FDF7CCF899
:105570005B460F001A685B68002184460E481218CB
:105580004B419F4202D8D3D19445D1D9504612F015
:10559000EFFEABE700200021064B18605960504633
:1055A00012F0E6FEA2E7C04640420F00FFFFFF7F79
:1055B00030E300208819002020A1070030B52B4CD3
:1055C00085B00021200012F003FF00281CD1284BD9
:1055D0001A68002A16D0EFF3108172B610680028FE
:1055E000FCD0BFF35F8F01242248596002781B680A
:1055F000D2B20470BFF35F8F0020186081F310886F
:10560000002A17D005B030BD01200021404200F033
:105610001BFC002001F01AFA0500200012F0A8FE81
:10562000002DEFD0144B1B68002BEBD0134A1068F1
:105630009847E7E7FCF73CFE0400FDF765F8FA221F
:105640000023920012184B41802109068B4202D39D
:1056500001220B4B52420121029100210191094983
:1056600020000091FCF728FECCE7C04630E3002084
:1056700034D2002098E300207C25002080250020E3
:10568000FFFFFF7F75530010D02310B51B0684B0B9
:105690001C68FCF70DFEFCF70BFFA04202D00020B7
:1056A00004B010BD2A4B002100201B7801F078FDCA
:1056B00028480368002B47D00120FCF76BFBFF2331
:1056C000254C264920701840FCF7DEF8207801218F
:1056D000FCF7A2F80520FCF7C5F8002826D108221F
:1056E00000211F48FDF7A6FFFCF7E2FD0400FDF7CF
:1056F0000BF8FA220023920012184B418021090670
:105700008B4202D30122174B524201210291002108
:105710000191154920000091FCF7CEFD0028BEDB69
:1057200012480121FFF792FC0120B9E70120FCF7A4
:1057300041F80B4B01001800FCF7ACFB00220520E0
:105740000B49FCF7CBF8EBE7FCF77AFBB4E7C04674
:105750008C25051030E3002096E30020BD55001095
:1057600034D20020FFFFFF7F75530010E0110020AE
:105770006553001000487047A8AA01100048704700
:1057800054AA011010B5040017480378002B20D04C
:10579000002C06D1154B16484380063BFF3B038087
:1057A00010BD052C19D8134BA400E0581249012351
:1057B000013804E001330A800231142B0FD0C25C9F
:1057C000002AF7D1C022DBB25B00920008481343E5
:1057D000E5E7112100F022F8DAE70020E0E7CA232C
:1057E00003489B00DBE7C04660E30020090400009B
:1057F000582F00203CAA01105A2F002010B5024853
:1058000000F0E0F810BDC0461CE2002010B50822F0
:105810000149FDF715FF10BD1CE2002030B54B1EFD
:10582000012900D1A7E0664A11780D092C00303417
:105830009F2900D9A2E00470012B00D1BEE00F2106
:10584000147821400C003034092900D998E04470C4
:10585000022B00D1B2E054782509290030319F2C69
:1058600000D990E08170032B00D1A7E00F212140E7
:105870000C003034092900D987E0C470042B00D112
:105880009CE094782509290030319F2C00D97FE0D5
:105890000171052B00D191E00F2121400C00303423
:1058A000092900D976E04471062B00D186E0D4782E
:1058B0002509290030319F2C00D96EE08171072B1A
:1058C00000D17BE00F2121400C003034092966D83B
:1058D000C471082B00D171E01479250929003031F9
:1058E0009F2C5FD80172092B68D00F2121400C003A
:1058F0003034092958D844720A2B5FD054792509CD
:10590000290030319F2C52D881720B2B56D00F2199
:1059100021400C00303409294BD8C4720C2B4DD0D7
:1059200094792509290030319F2C00D90731017362
:105930000D2B43D00F2121400C003034092901D90F
:1059400037310C0044730E2B38D0D1790C0922006A
:1059500030329F2900D9073282730F2B2ED00F22AD
:105960000A4011003731092A01D830321100C173C1
:10597000102B23D010300023037030BD07345AE7BA
:1059800037310C0063E707316CE737310C0074E7FF
:1059900007317DE737310C0085E707318EE7373176
:1059A0000C0095E707319DE737310C00A3E707317D
:1059B000AAE737310C00C4720C2BB1D1C018DAE75A
:1059C0001CE2002010B588B004000D2200216846BA
:1059D000FDF730FE0D22002104A8FDF72BFE4B231E
:1059E0006A466846137004A90D2212F0B9FC15210D
:1059F000082220006944FDF723FE08B010BDC04610
:105A0000F8B500F043F90C23194DFF22AB670520D0
:105A10001849FBF763FF184C402200212000FDF7D6
:105A200009FE4027002301262121144A667027839E
:105A3000A260136063545F31618445396354104A36
:105A400010496360E2602787A1620B606362E262D3
:105A500012F0CEFC80239B052E64EB6490230A4A4F
:105A60000120EA508022094B5202DA64F8BDC04698
:105A7000000011509906002074340020840010505A
:105A8000000110508000105010D001000020115073
:105A900010B501210520FBF7BFFE10BD10B5002297
:105AA0000021024800F012F910BDC04694340020D5
:105AB000044B1970002904D080219023024A8902E6
:105AC000D15070478BE30020002011500B785B060B
:105AD00002D14B78052B00D070478A78014B1A60B1
